{
  "_format": "hh-sol-artifact-1",
  "contractName": "DataMarketplace",
  "sourceName": "contracts/DataMarketplace.sol",
  "abi": [
    {
      "anonymous": false,
      "inputs": [
        {
          "indexed": true,
          "internalType": "uint256",
          "name": "id",
          "type": "uint256"
        },
        {
          "indexed": true,
          "internalType": "address",
          "name": "owner",
          "type": "address"
        },
        {
          "indexed": false,
          "internalType": "string",
          "name": "name",
          "type": "string"
        },
        {
          "indexed": false,
          "internalType": "uint256",
          "name": "price",
          "type": "uint256"
        }
      ],
      "name": "DataAssetListed",
      "type": "event"
    },
    {
      "anonymous": false,
      "inputs": [
        {
          "indexed": true,
          "internalType": "uint256",
          "name": "id",
          "type": "uint256"
        },
        {
          "indexed": true,
          "internalType": "address",
          "name": "buyer",
          "type": "address"
        },
        {
          "indexed": true,
          "internalType": "address",
          "name": "seller",
          "type": "address"
        }
      ],
      "name": "DataAssetPurchased",
      "type": "event"
    },
    {
      "anonymous": false,
      "inputs": [
        {
          "indexed": true,
          "internalType": "address",
          "name": "user",
          "type": "address"
        },
        {
          "indexed": false,
          "internalType": "uint256",
          "name": "amount",
          "type": "uint256"
        }
      ],
      "name": "FundsWithdrawn",
      "type": "event"
    },
    {
      "anonymous": false,
      "inputs": [
        {
          "indexed": true,
          "internalType": "address",
          "name": "user",
          "type": "address"
        },
        {
          "indexed": false,
          "internalType": "enum DataMarketplace.Role",
          "name": "role",
          "type": "uint8"
        }
      ],
      "name": "RoleAssigned",
      "type": "event"
    },
    {
      "inputs": [
        {
          "internalType": "address",
          "name": "",
          "type": "address"
        }
      ],
      "name": "balances",
      "outputs": [
        {
          "internalType": "uint256",
          "name": "",
          "type": "uint256"
        }
      ],
      "stateMutability": "view",
      "type": "function"
    },
    {
      "inputs": [
        {
          "internalType": "uint256",
          "name": "_assetId",
          "type": "uint256"
        }
      ],
      "name": "buyData",
      "outputs": [],
      "stateMutability": "payable",
      "type": "function"
    },
    {
      "inputs": [
        {
          "internalType": "uint256",
          "name": "",
          "type": "uint256"
        }
      ],
      "name": "dataAssets",
      "outputs": [
        {
          "internalType": "uint256",
          "name": "id",
          "type": "uint256"
        },
        {
          "internalType": "address",
          "name": "owner",
          "type": "address"
        },
        {
          "internalType": "string",
          "name": "name",
          "type": "string"
        },
        {
          "internalType": "string",
          "name": "description",
          "type": "string"
        },
        {
          "internalType": "string",
          "name": "category",
          "type": "string"
        },
        {
          "internalType": "string",
          "name": "ipfsHash",
          "type": "string"
        },
        {
          "internalType": "uint256",
          "name": "fullPrice",
          "type": "uint256"
        },
        {
          "internalType": "bool",
          "name": "isActive",
          "type": "bool"
        }
      ],
      "stateMutability": "view",
      "type": "function"
    },
    {
      "inputs": [],
      "name": "getAllActiveAssets",
      "outputs": [
        {
          "internalType": "uint256[]",
          "name": "",
          "type": "uint256[]"
        }
      ],
      "stateMutability": "view",
      "type": "function"
    },
    {
      "inputs": [
        {
          "internalType": "address",
          "name": "_buyer",
          "type": "address"
        }
      ],
      "name": "getPurchasedAssets",
      "outputs": [
        {
          "internalType": "uint256[]",
          "name": "",
          "type": "uint256[]"
        }
      ],
      "stateMutability": "view",
      "type": "function"
    },
    {
      "inputs": [
        {
          "internalType": "address",
          "name": "_owner",
          "type": "address"
        }
      ],
      "name": "getUserAssets",
      "outputs": [
        {
          "internalType": "uint256[]",
          "name": "",
          "type": "uint256[]"
        }
      ],
      "stateMutability": "view",
      "type": "function"
    },
    {
      "inputs": [
        {
          "internalType": "uint256",
          "name": "_assetId",
          "type": "uint256"
        },
        {
          "internalType": "address",
          "name": "_user",
          "type": "address"
        }
      ],
      "name": "hasAccess",
      "outputs": [
        {
          "internalType": "bool",
          "name": "",
          "type": "bool"
        }
      ],
      "stateMutability": "view",
      "type": "function"
    },
    {
      "inputs": [
        {
          "internalType": "string",
          "name": "_name",
          "type": "string"
        },
        {
          "internalType": "string",
          "name": "_description",
          "type": "string"
        },
        {
          "internalType": "string",
          "name": "_category",
          "type": "string"
        },
        {
          "internalType": "string",
          "name": "_ipfsHash",
          "type": "string"
        },
        {
          "internalType": "uint256",
          "name": "_fullPrice",
          "type": "uint256"
        }
      ],
      "name": "listDataAsset",
      "outputs": [],
      "stateMutability": "nonpayable",
      "type": "function"
    },
    {
      "inputs": [],
      "name": "nextAssetId",
      "outputs": [
        {
          "internalType": "uint256",
          "name": "",
          "type": "uint256"
        }
      ],
      "stateMutability": "view",
      "type": "function"
    },
    {
      "inputs": [],
      "name": "registerAsCompany",
      "outputs": [],
      "stateMutability": "nonpayable",
      "type": "function"
    },
    {
      "inputs": [],
      "name": "registerAsUser",
      "outputs": [],
      "stateMutability": "nonpayable",
      "type": "function"
    },
    {
      "inputs": [
        {
          "internalType": "address",
          "name": "",
          "type": "address"
        }
      ],
      "name": "roles",
      "outputs": [
        {
          "internalType": "enum DataMarketplace.Role",
          "name": "",
          "type": "uint8"
        }
      ],
      "stateMutability": "view",
      "type": "function"
    },
    {
      "inputs": [
        {
          "internalType": "uint256",
          "name": "_assetId",
          "type": "uint256"
        }
      ],
      "name": "toggleAssetAvailability",
      "outputs": [],
      "stateMutability": "nonpayable",
      "type": "function"
    },
    {
      "inputs": [
        {
          "internalType": "uint256",
          "name": "_assetId",
          "type": "uint256"
        },
        {
          "internalType": "uint256",
          "name": "_newPrice",
          "type": "uint256"
        }
      ],
      "name": "updateAssetPrice",
      "outputs": [],
      "stateMutability": "nonpayable",
      "type": "function"
    },
    {
      "inputs": [],
      "name": "withdraw",
      "outputs": [],
      "stateMutability": "nonpayable",
      "type": "function"
    }
  ],
  "bytecode": "0x6080604052600160005534801561001557600080fd5b50612899806100256000396000f3fe6080604052600436106100e85760003560e01c80637a2992e51161008a578063c4479ec611610059578063c4479ec6146102d5578063ca209dce146102fe578063ced141981461031a578063d60d5aad14610357576100e8565b80637a2992e51461021b5780638ed9131814610244578063993746421461026f578063bf435ac2146102ac576100e8565b806358b2b57d116100c657806358b2b57d1461015857806366dda47f1461016f5780636b7cc557146101b3578063765ff061146101de576100e8565b806306f9a17d146100ed57806327e235e3146101045780633ccfd60b14610141575b600080fd5b3480156100f957600080fd5b50610102610394565b005b34801561011057600080fd5b5061012b600480360381019061012691906118ea565b610500565b6040516101389190611930565b60405180910390f35b34801561014d57600080fd5b50610156610518565b005b34801561016457600080fd5b5061016d6106e2565b005b34801561017b57600080fd5b5061019660048036038101906101919190611977565b61084d565b6040516101aa989796959493929190611a5e565b60405180910390f35b3480156101bf57600080fd5b506101c8610ae2565b6040516101d59190611bb6565b60405180910390f35b3480156101ea57600080fd5b50610205600480360381019061020091906118ea565b610c6e565b6040516102129190611bb6565b60405180910390f35b34801561022757600080fd5b50610242600480360381019061023d9190611977565b610d05565b005b34801561025057600080fd5b50610259610dfe565b6040516102669190611930565b60405180910390f35b34801561027b57600080fd5b50610296600480360381019061029191906118ea565b610e04565b6040516102a39190611c4f565b60405180910390f35b3480156102b857600080fd5b506102d360048036038101906102ce9190611d9f565b610e24565b005b3480156102e157600080fd5b506102fc60048036038101906102f79190611e8a565b611163565b005b61031860048036038101906103139190611977565b611269565b005b34801561032657600080fd5b50610341600480360381019061033c9190611eca565b61170d565b60405161034e9190611f0a565b60405180910390f35b34801561036357600080fd5b5061037e600480360381019061037991906118ea565b6117e1565b60405161038b9190611bb6565b60405180910390f35b600060028111156103a8576103a7611bd8565b5b600260003373ffffffffffffffffffffffffffffffffffffffff1673ffffffffffffffffffffffffffffffffffffffff16815260200190815260200160002060009054906101000a900460ff16600281111561040757610406611bd8565b5b14610447576040517f08c379a000000000000000000000000000000000000000000000000000000000815260040161043e90611f71565b60405180910390fd5b6001600260003373ffffffffffffffffffffffffffffffffffffffff1673ffffffffffffffffffffffffffffffffffffffff16815260200190815260200160002060006101000a81548160ff021916908360028111156104aa576104a9611bd8565b5b02179055503373ffffffffffffffffffffffffffffffffffffffff167f4ac36fa53f167ceb85964be512e01de2a3b8bdb9862f917da079deeeff689b3860016040516104f69190611c4f565b60405180910390a2565b60036020528060005260406000206000915090505481565b6000600360003373ffffffffffffffffffffffffffffffffffffffff1673ffffffffffffffffffffffffffffffffffffffff1681526020019081526020016000205490506000811161059f576040517f08c379a000000000000000000000000000000000000000000000000000000000815260040161059690611fdd565b60405180910390fd5b6000600360003373ffffffffffffffffffffffffffffffffffffffff1673ffffffffffffffffffffffffffffffffffffffff1681526020019081526020016000208190555060003373ffffffffffffffffffffffffffffffffffffffff168260405161060a9061202e565b60006040518083038185875af1925050503d8060008114610647576040519150601f19603f3d011682016040523d82523d6000602084013e61064c565b606091505b5050905080610690576040517f08c379a00000000000000000000000000000000000000000000000000000000081526004016106879061208f565b60405180910390fd5b3373ffffffffffffffffffffffffffffffffffffffff167feaff4b37086828766ad3268786972c0cd24259d4c87a80f9d3963a3c3d999b0d836040516106d69190611930565b60405180910390a25050565b600060028111156106f6576106f5611bd8565b5b600260003373ffffffffffffffffffffffffffffffffffffffff1673ffffffffffffffffffffffffffffffffffffffff16815260200190815260200160002060009054906101000a900460ff16600281111561075557610754611bd8565b5b14610795576040517f08c379a000000000000000000000000000000000000000000000000000000000815260040161078c90611f71565b60405180910390fd5b60028060003373ffffffffffffffffffffffffffffffffffffffff1673ffffffffffffffffffffffffffffffffffffffff16815260200190815260200160002060006101000a81548160ff021916908360028111156107f7576107f6611bd8565b5b02179055503373ffffffffffffffffffffffffffffffffffffffff167f4ac36fa53f167ceb85964be512e01de2a3b8bdb9862f917da079deeeff689b3860026040516108439190611c4f565b60405180910390a2565b60016020528060005260406000206000915090508060000154908060010160009054906101000a900473ffffffffffffffffffffffffffffffffffffffff169080600201805461089c906120de565b80601f01602080910402602001604051908101604052809291908181526020018280546108c8906120de565b80156109155780601f106108ea57610100808354040283529160200191610915565b820191906000526020600020905b8154815290600101906020018083116108f857829003601f168201915b50505050509080600301805461092a906120de565b80601f0160208091040260200160405190810160405280929190818152602001828054610956906120de565b80156109a35780601f10610978576101008083540402835291602001916109a3565b820191906000526020600020905b81548152906001019060200180831161098657829003601f168201915b5050505050908060040180546109b8906120de565b80601f01602080910402602001604051908101604052809291908181526020018280546109e4906120de565b8015610a315780601f10610a0657610100808354040283529160200191610a31565b820191906000526020600020905b815481529060010190602001808311610a1457829003601f168201915b505050505090806005018054610a46906120de565b80601f0160208091040260200160405190810160405280929190818152602001828054610a72906120de565b8015610abf5780601f10610a9457610100808354040283529160200191610abf565b820191906000526020600020905b815481529060010190602001808311610aa257829003601f168201915b5050505050908060060154908060070160009054906101000a900460ff16905088565b60606000805b600780549050811015610b5e576001600060078381548110610b0d57610b0c61210f565b5b9060005260206000200154815260200190815260200160002060070160009054906101000a900460ff1615610b4b578180610b479061216d565b9250505b8080610b569061216d565b915050610ae8565b5060008167ffffffffffffffff811115610b7b57610b7a611c74565b5b604051908082528060200260200182016040528015610ba95781602001602082028036833780820191505090505b5090506000805b600780549050811015610c64576001600060078381548110610bd557610bd461210f565b5b9060005260206000200154815260200190815260200160002060070160009054906101000a900460ff1615610c515760078181548110610c1857610c1761210f565b5b9060005260206000200154838381518110610c3657610c3561210f565b5b6020026020010181815250508180610c4d9061216d565b9250505b8080610c5c9061216d565b915050610bb0565b5081935050505090565b6060600560008373ffffffffffffffffffffffffffffffffffffffff1673ffffffffffffffffffffffffffffffffffffffff168152602001908152602001600020805480602002602001604051908101604052809291908181526020018280548015610cf957602002820191906000526020600020905b815481526020019060010190808311610ce5575b50505050509050919050565b3373ffffffffffffffffffffffffffffffffffffffff166001600083815260200190815260200160002060010160009054906101000a900473ffffffffffffffffffffffffffffffffffffffff1673ffffffffffffffffffffffffffffffffffffffff1614610da9576040517f08c379a0000000000000000000000000000000000000000000000000000000008152600401610da090612201565b60405180910390fd5b6001600082815260200190815260200160002060070160009054906101000a900460ff16156001600083815260200190815260200160002060070160006101000a81548160ff02191690831515021790555050565b60005481565b60026020528060005260406000206000915054906101000a900460ff1681565b60016002811115610e3857610e37611bd8565b5b600260003373ffffffffffffffffffffffffffffffffffffffff1673ffffffffffffffffffffffffffffffffffffffff16815260200190815260200160002060009054906101000a900460ff166002811115610e9757610e96611bd8565b5b14610ed7576040517f08c379a0000000000000000000000000000000000000000000000000000000008152600401610ece9061226d565b60405180910390fd5b60008111610f1a576040517f08c379a0000000000000000000000000000000000000000000000000000000008152600401610f11906122d9565b60405180910390fd5b600060405180610100016040528060005481526020013373ffffffffffffffffffffffffffffffffffffffff1681526020018781526020018681526020018581526020018481526020018381526020016001151581525090508060016000805481526020019081526020016000206000820151816000015560208201518160010160006101000a81548173ffffffffffffffffffffffffffffffffffffffff021916908373ffffffffffffffffffffffffffffffffffffffff1602179055506040820151816002019081610fee91906124a5565b50606082015181600301908161100491906124a5565b50608082015181600401908161101a91906124a5565b5060a082015181600501908161103091906124a5565b5060c0820151816006015560e08201518160070160006101000a81548160ff021916908315150217905550905050600560003373ffffffffffffffffffffffffffffffffffffffff1673ffffffffffffffffffffffffffffffffffffffff1681526020019081526020016000206000549080600181540180825580915050600190039060005260206000200160009091909190915055600760005490806001815401808255809150506001900390600052602060002001600090919091909150553373ffffffffffffffffffffffffffffffffffffffff166000547f656ba33ec4eb002e9bdb2e14959f8ba70c4bba0873f5606a9a40b4ff981d6e3d888560405161113c929190612577565b60405180910390a36000808154809291906111569061216d565b9190505550505050505050565b3373ffffffffffffffffffffffffffffffffffffffff166001600084815260200190815260200160002060010160009054906101000a900473ffffffffffffffffffffffffffffffffffffffff1673ffffffffffffffffffffffffffffffffffffffff1614611207576040517f08c379a00000000000000000000000000000000000000000000000000000000081526004016111fe90612201565b60405180910390fd5b6000811161124a576040517f08c379a0000000000000000000000000000000000000000000000000000000008152600401611241906122d9565b60405180910390fd5b8060016000848152602001908152602001600020600601819055505050565b600060016000838152602001908152602001600020905060008160000154036112c7576040517f08c379a00000000000000000000000000000000000000000000000000000000081526004016112be906125f3565b60405180910390fd5b8060070160009054906101000a900460ff16611318576040517f08c379a000000000000000000000000000000000000000000000000000000000815260040161130f9061265f565b60405180910390fd5b60028081111561132b5761132a611bd8565b5b600260003373ffffffffffffffffffffffffffffffffffffffff1673ffffffffffffffffffffffffffffffffffffffff16815260200190815260200160002060009054906101000a900460ff16600281111561138a57611389611bd8565b5b146113ca576040517f08c379a00000000000000000000000000000000000000000000000000000000081526004016113c1906126cb565b60405180910390fd5b3373ffffffffffffffffffffffffffffffffffffffff168160010160009054906101000a900473ffffffffffffffffffffffffffffffffffffffff1673ffffffffffffffffffffffffffffffffffffffff160361145c576040517f08c379a000000000000000000000000000000000000000000000000000000000815260040161145390612737565b60405180910390fd5b80600601543410156114a3576040517f08c379a000000000000000000000000000000000000000000000000000000000815260040161149a906127a3565b60405180910390fd5b600460003373ffffffffffffffffffffffffffffffffffffffff1673ffffffffffffffffffffffffffffffffffffffff168152602001908152602001600020600083815260200190815260200160002060009054906101000a900460ff1615611541576040517f08c379a00000000000000000000000000000000000000000000000000000000081526004016115389061280f565b60405180910390fd5b6001600460003373ffffffffffffffffffffffffffffffffffffffff1673ffffffffffffffffffffffffffffffffffffffff168152602001908152602001600020600084815260200190815260200160002060006101000a81548160ff021916908315150217905550600660003373ffffffffffffffffffffffffffffffffffffffff1673ffffffffffffffffffffffffffffffffffffffff16815260200190815260200160002082908060018154018082558091505060019003906000526020600020016000909190919091505534600360008360010160009054906101000a900473ffffffffffffffffffffffffffffffffffffffff1673ffffffffffffffffffffffffffffffffffffffff1673ffffffffffffffffffffffffffffffffffffffff1681526020019081526020016000206000828254611683919061282f565b925050819055508060010160009054906101000a900473ffffffffffffffffffffffffffffffffffffffff1673ffffffffffffffffffffffffffffffffffffffff163373ffffffffffffffffffffffffffffffffffffffff16837f6179e0a88dd530162f1ae7ddae3dc6662161844cf26e5a332000d5d6c92c410c60405160405180910390a45050565b60008173ffffffffffffffffffffffffffffffffffffffff166001600085815260200190815260200160002060010160009054906101000a900473ffffffffffffffffffffffffffffffffffffffff1673ffffffffffffffffffffffffffffffffffffffff1614806117d95750600460008373ffffffffffffffffffffffffffffffffffffffff1673ffffffffffffffffffffffffffffffffffffffff168152602001908152602001600020600084815260200190815260200160002060009054906101000a900460ff165b905092915050565b6060600660008373ffffffffffffffffffffffffffffffffffffffff1673ffffffffffffffffffffffffffffffffffffffff16815260200190815260200160002080548060200260200160405190810160405280929190818152602001828054801561186c57602002820191906000526020600020905b815481526020019060010190808311611858575b50505050509050919050565b6000604051905090565b600080fd5b600080fd5b600073ffffffffffffffffffffffffffffffffffffffff82169050919050565b60006118b78261188c565b9050919050565b6118c7816118ac565b81146118d257600080fd5b50565b6000813590506118e4816118be565b92915050565b600060208284031215611900576118ff611882565b5b600061190e848285016118d5565b91505092915050565b6000819050919050565b61192a81611917565b82525050565b60006020820190506119456000830184611921565b92915050565b61195481611917565b811461195f57600080fd5b50565b6000813590506119718161194b565b92915050565b60006020828403121561198d5761198c611882565b5b600061199b84828501611962565b91505092915050565b6119ad816118ac565b82525050565b600081519050919050565b600082825260208201905092915050565b60005b838110156119ed5780820151818401526020810190506119d2565b60008484015250505050565b6000601f19601f8301169050919050565b6000611a15826119b3565b611a1f81856119be565b9350611a2f8185602086016119cf565b611a38816119f9565b840191505092915050565b60008115159050919050565b611a5881611a43565b82525050565b600061010082019050611a74600083018b611921565b611a81602083018a6119a4565b8181036040830152611a938189611a0a565b90508181036060830152611aa78188611a0a565b90508181036080830152611abb8187611a0a565b905081810360a0830152611acf8186611a0a565b9050611ade60c0830185611921565b611aeb60e0830184611a4f565b9998505050505050505050565b600081519050919050565b600082825260208201905092915050565b6000819050602082019050919050565b611b2d81611917565b82525050565b6000611b3f8383611b24565b60208301905092915050565b6000602082019050919050565b6000611b6382611af8565b611b6d8185611b03565b9350611b7883611b14565b8060005b83811015611ba9578151611b908882611b33565b9750611b9b83611b4b565b925050600181019050611b7c565b5085935050505092915050565b60006020820190508181036000830152611bd08184611b58565b905092915050565b7f4e487b7100000000000000000000000000000000000000000000000000000000600052602160045260246000fd5b60038110611c1857611c17611bd8565b5b50565b6000819050611c2982611c07565b919050565b6000611c3982611c1b565b9050919050565b611c4981611c2e565b82525050565b6000602082019050611c646000830184611c40565b92915050565b600080fd5b600080fd5b7f4e487b7100000000000000000000000000000000000000000000000000000000600052604160045260246000fd5b611cac826119f9565b810181811067ffffffffffffffff82111715611ccb57611cca611c74565b5b80604052505050565b6000611cde611878565b9050611cea8282611ca3565b919050565b600067ffffffffffffffff821115611d0a57611d09611c74565b5b611d13826119f9565b9050602081019050919050565b82818337600083830152505050565b6000611d42611d3d84611cef565b611cd4565b905082815260208101848484011115611d5e57611d5d611c6f565b5b611d69848285611d20565b509392505050565b600082601f830112611d8657611d85611c6a565b5b8135611d96848260208601611d2f565b91505092915050565b600080600080600060a08688031215611dbb57611dba611882565b5b600086013567ffffffffffffffff811115611dd957611dd8611887565b5b611de588828901611d71565b955050602086013567ffffffffffffffff811115611e0657611e05611887565b5b611e1288828901611d71565b945050604086013567ffffffffffffffff811115611e3357611e32611887565b5b611e3f88828901611d71565b935050606086013567ffffffffffffffff811115611e6057611e5f611887565b5b611e6c88828901611d71565b9250506080611e7d88828901611962565b9150509295509295909350565b60008060408385031215611ea157611ea0611882565b5b6000611eaf85828601611962565b9250506020611ec085828601611962565b9150509250929050565b60008060408385031215611ee157611ee0611882565b5b6000611eef85828601611962565b9250506020611f00858286016118d5565b9150509250929050565b6000602082019050611f1f6000830184611a4f565b92915050565b7f416c726561647920726567697374657265640000000000000000000000000000600082015250565b6000611f5b6012836119be565b9150611f6682611f25565b602082019050919050565b60006020820190508181036000830152611f8a81611f4e565b9050919050565b7f4e6f2066756e647320746f207769746864726177000000000000000000000000600082015250565b6000611fc76014836119be565b9150611fd282611f91565b602082019050919050565b60006020820190508181036000830152611ff681611fba565b9050919050565b600081905092915050565b50565b6000612018600083611ffd565b915061202382612008565b600082019050919050565b60006120398261200b565b9150819050919050565b7f5769746864726177616c206661696c6564000000000000000000000000000000600082015250565b60006120796011836119be565b915061208482612043565b602082019050919050565b600060208201905081810360008301526120a88161206c565b9050919050565b7f4e487b7100000000000000000000000000000000000000000000000000000000600052602260045260246000fd5b600060028204905060018216806120f657607f821691505b602082108103612109576121086120af565b5b50919050565b7f4e487b7100000000000000000000000000000000000000000000000000000000600052603260045260246000fd5b7f4e487b7100000000000000000000000000000000000000000000000000000000600052601160045260246000fd5b600061217882611917565b91507fffffffffffffffffffffffffffffffffffffffffffffffffffffffffffffffff82036121aa576121a961213e565b5b600182019050919050565b7f4e6f7420746865206f776e657200000000000000000000000000000000000000600082015250565b60006121eb600d836119be565b91506121f6826121b5565b602082019050919050565b6000602082019050818103600083015261221a816121de565b9050919050565b7f4f6e6c792075736572732063616e206c69737420646174610000000000000000600082015250565b60006122576018836119be565b915061226282612221565b602082019050919050565b600060208201905081810360008301526122868161224a565b9050919050565b7f5072696365206d7573742062652067726561746572207468616e203000000000600082015250565b60006122c3601c836119be565b91506122ce8261228d565b602082019050919050565b600060208201905081810360008301526122f2816122b6565b9050919050565b60008190508160005260206000209050919050565b60006020601f8301049050919050565b600082821b905092915050565b60006008830261235b7fffffffffffffffffffffffffffffffffffffffffffffffffffffffffffffffff8261231e565b612365868361231e565b95508019841693508086168417925050509392505050565b6000819050919050565b60006123a261239d61239884611917565b61237d565b611917565b9050919050565b6000819050919050565b6123bc83612387565b6123d06123c8826123a9565b84845461232b565b825550505050565b600090565b6123e56123d8565b6123f08184846123b3565b505050565b5b81811015612414576124096000826123dd565b6001810190506123f6565b5050565b601f8211156124595761242a816122f9565b6124338461230e565b81016020851015612442578190505b61245661244e8561230e565b8301826123f5565b50505b505050565b600082821c905092915050565b600061247c6000198460080261245e565b1980831691505092915050565b6000612495838361246b565b9150826002028217905092915050565b6124ae826119b3565b67ffffffffffffffff8111156124c7576124c6611c74565b5b6124d182546120de565b6124dc828285612418565b600060209050601f83116001811461250f57600084156124fd578287015190505b6125078582612489565b86555061256f565b601f19841661251d866122f9565b60005b8281101561254557848901518255600182019150602085019450602081019050612520565b86831015612562578489015161255e601f89168261246b565b8355505b6001600288020188555050505b505050505050565b600060408201905081810360008301526125918185611a0a565b90506125a06020830184611921565b9392505050565b7f417373657420646f6573206e6f74206578697374000000000000000000000000600082015250565b60006125dd6014836119be565b91506125e8826125a7565b602082019050919050565b6000602082019050818103600083015261260c816125d0565b9050919050565b7f4173736574206973206e6f7420617661696c61626c6500000000000000000000600082015250565b60006126496016836119be565b915061265482612613565b602082019050919050565b600060208201905081810360008301526126788161263c565b9050919050565b7f4f6e6c7920636f6d70616e6965732063616e2062757920646174610000000000600082015250565b60006126b5601b836119be565b91506126c08261267f565b602082019050919050565b600060208201905081810360008301526126e4816126a8565b9050919050565b7f43616e6e6f742062757920796f7572206f776e20617373657400000000000000600082015250565b60006127216019836119be565b915061272c826126eb565b602082019050919050565b6000602082019050818103600083015261275081612714565b9050919050565b7f496e73756666696369656e74207061796d656e74000000000000000000000000600082015250565b600061278d6014836119be565b915061279882612757565b602082019050919050565b600060208201905081810360008301526127bc81612780565b9050919050565b7f416c726561647920707572636861736564000000000000000000000000000000600082015250565b60006127f96011836119be565b9150612804826127c3565b602082019050919050565b60006020820190508181036000830152612828816127ec565b9050919050565b600061283a82611917565b915061284583611917565b925082820190508082111561285d5761285c61213e565b5b9291505056fea2646970667358221220c2c634a3b9ca1d91a37e823c6ea3305993ba40cf57cb24db0f37160fe591874064736f6c63430008140033",
  "linkReferences": {},
  "deployedLinkReferences": {}
}